:020000040800F2
:10000000603A002001010008C11100085D100008DD
:1000100025110008650200084148000800000000A2
:100020000000000000000000000000000946000879
:10003000FD03000800000000D70100087926000831
:100040001B0100081B0100081B0100081B01000820
:100050001B0100081B0100081B0100081B01000810
:100060001B0100081B0100081B0100081B01000800
:100070001B0100081B0100081B0100081B010008F0
:100080001B0100081B0100081B0100081B010008E0
:100090001B0100081B0100081B0100081B010008D0
:1000A0001B0100081B0100081B0100081B010008C0
:1000B0001B0100081B0100081B0100081B010008B0
:1000C0001B0100081B0100081B0100081B010008A0
:1000D0001B010008354800081B0100081B0100082F
:1000E0001B0100081B0100081B010008DFF80CD0F1
:1000F00000F044F8004800477D490008603A0020BD
:100100000648804706480047FEE7FEE7FEE7FEE7B1
:10011000FEE7FEE7FEE7FEE7FEE7FEE759460008DA
:10012000ED00000872B6704762B67047EFF31080BA
:1001300072B6704780F31088704730BF704720BF99
:100140007047B0FA80F0704790FAA0F0B0FA80F0F3
:10015000704790FAA0F07047D2B201E000F8012B8E
:10016000491EFBD270470022F6E710B513460A4637
:1001700004461946FFF7F0FF204610BD064C074D18
:1001800006E0E06840F0010394E807009847103467
:10019000AC42F6D3FFF7AEFF104C0008304C00081D
:1001A0001D484FF0FF010170002080F309881B48B3
:1001B000016881F308881A484FF08051016062B6E7
:1001C000FEE717484FF080510160704714484FF028
:1001D00080510160704772B6EFF3098028B1203872
:1001E00080E8F00F0F490968086000B50E488047A5
:1001F0005DF804EB0D480E490A78027009480D4974
:100200000A680260106890E8F00F203080F30988D7
:100210004EF0F40E62B6704722ED00E03000002090
:1002200004ED00E014010020612300088E0000208E
:100230008F0000201801002010B500F005F8BDE87F
:10024000104000F00DBF000010B500F06BFB04493A
:100250000968BDE81040B0FBF1F002F025BA0000DB
:10026000E84B0008FEE70000054910B50020486093
:1002700000F0A6F800F006F8BDE8104000F086B8DF
:10028000100000202DE9F041104D002427462C805D
:100290006C80AC60EC606C61AC612C61FFF746FF78
:1002A000804600266C6100F049F800F057F8686954
:1002B000761C36040744360CF4D0C5E90474404675
:1002C000AC61BDE8F041FFF735BF00001000002031
:1002D00003490969884201D9401A704700207047D4
:1002E0001000002010B5FFF721FF04494C69FFF70B
:1002F00021FF2046BDE81040FFF7EABF10000020B4
:1003000010B5FFF7EFFF0446FFF710FF034A002187
:100310005161FFF70FFF204610BD000010000020C4
:1003200010B5FFF703FF04498C69FFF703FF204670
:10033000BDE81040FFF7CCBF1000002010B5064C00
:100340002088401C2080608810B900F051F8A0601F
:100350006088401C608010BD1000002010B50A4C61
:100360006088401E0004000C60800CD100F040F852
:10037000E060A168401A6169814200D26061A169B0
:10038000814200D2A06110BD1000002010B5FFF71F
:10039000CDFE0446FFF7D2FF1021054800F0C3FE52
:1003A000FFF7DCFF2046BDE81040FFF7C3BE0000AA
:1003B000F808002001494860704700001000002044
:1003C000094810B5016841F08071016007480021BB
:1003D0004160016841F00101016000F0A3FABDE84D
:1003E0001040FFF7E7BF0000FCED00E0001000E068
:1003F0000148406870470000001000E070477047F7
:1004000010B590F821100022022905D00421816343
:1004100080F82020012010BD01680B6823F00E0336
:100420000B6001680B6823F001030B6090F840300B
:10043000C46B012101FA03F3636080F8211080F896
:100440002020104610BD000010B590F821100024A7
:10045000022903D00421816301243DE001680A6878
:1004600022F00E020A6001680A6822F001020A60A6
:100470001A4A0168914201D1012121E0174A143240
:10048000914201D110211BE0144A2832914201D13E
:10049000891515E0114A3C32914201D189140FE0CF
:1004A0000E4A5032914202D14FF4803108E00B4A9B
:1004B0006432914202D14FF4801101E04FF080711B
:1004C000064A083A5160012180F82110002180F885
:1004D0002010416B01B18847204610BD0800024042
:1004E0002DE9F84FDFF8B8910024A9F1040B234659
:1004F0000F2709F1040AABF1040EC9E00125A5405C
:100500002A40AA427DD1674ED1F804C0ACEB060860
:10051000B44532D014DCBCF1030F3AD009DCBCF195
:10052000000F2AD0BCF1010F1CD0BCF1020F31D159
:100530001DE0BCF1110F17D0BCF1120F2AD119E048
:10054000B8F5881F19D006DCB8F5803F15D0B8F58E
:10055000801F1FD111E0B8F5001F0ED0B8F5041FA1
:1005600018D10AE0CB6815E0CB681B1D12E0CB6800
:1005700008330FE0CB680C330CE08B682BB1012BF8
:100580004FF0080303D0456104E0042302E0056155
:1005900000E00023FF2A01D8064601E000F104062E
:1005A0004FEA840501D9A5F12005D6F8008007FAA5
:1005B00005FC28EA0C0803FA05F548EA0508C6F820
:1005C00000804D68ED0062D5374DAE6946F00106FA
:1005D000AE61AD6924F0030605F001050095334DC9
:1005E00006EB050CDCF80850A607360F07FA06F8EC
:1005F00025EA0805DFF8B880404503D14FF0000830
:1006000017E044E0DFF8AC80404502D14FF001082C
:100610000FE0DFF8A480404502D14FF0020808E067
:10062000DFF89880404502D14FF0030801E04FF019
:10063000040808FA06F848EA0508CCF808804D686E
:10064000D9F80060ED024D4601D5164300E096430F
:100650002E604D68DAF80060AD02554601D51643AC
:1006600000E096432E604D68DBF80060AD035D4608
:1006700001D5164300E096432E604D68DEF8006019
:10068000ED03754601D5164300E096432E60641CC9
:100690000D682A46E5407FF431AFBDE8F88F0000D1
:1006A0000804014000001110001002400000014049
:1006B00000080140000C01400010014000140140FE
:1006C0000AB1016170470904FBE700000148806836
:1006D0007047000000000020074810B5016841F095
:1006E00010010160032000F075F80F2000F006F8FB
:1006F00000F024F8002010BD0020024070B50D4D20
:1007000004464FF47A712878B1FBF0F00A49096881
:10071000B1FBF0F000F0E2FA48B9102C07D2002249
:100720002146501E00F036F800206C6070BD01209C
:1007300070BD0000000000200C0000200C4808B52F
:10074000816941F001018161816901F0010100913C
:10075000C16941F08051C161C06900F080500090D2
:100760000448416821F0E06141F00071416008BD3A
:100770000010024000000140002809DB00F01F02C9
:10078000012191404009800000F1E020C0F80011F3
:1007900070470000F0B40E4B1B680C46C3F30223F5
:1007A000C3F10705042D00D90425191D072901D21D
:1007B000002300E0DB1E012606FA05F1491E214058
:1007C00099409E40761E16403143F0BC04F042B87A
:1007D0000CED00E0064900F0070208684FF6FF0341
:1007E000184040EA0220034A1043086070470000A6
:1007F0000CED00E00000FA052DE9F0470F4605007A
:1008000061D0434E306800F00700B84209D230682A
:1008100020F0070038433060306800F00700B8422D
:1008200051D128683B4C810712D5400703D5606839
:1008300040F4E06060602878000703D5606840F409
:10084000605060606068A96820F0F0000843606054
:100850002878C00728D06868012810D021680228AD
:1008600010D0890700292EDA616821F003010143C5
:100870006160FFF72BFF804641F288390DE0216867
:100880008903EFE78901EDE7FFF720FFA0EB0801FF
:10089000494502D90320BDE8F0876068696800F027
:1008A0000C00B0EB810FEFD1306800F00700B842C8
:1008B0000BD9306820F0070038433060306800F012
:1008C0000700B84201D00120E5E72878400705D5A8
:1008D0006068E96820F4E0600843606028780007F9
:1008E00006D56068296920F4605040EAC100606064
:1008F00000F03EF86168084AC1F30311515CC8403A
:100900000649086006480068FFF7F8FE0020C2E7C5
:100910000020024000100240864B00080C0000201E
:100920000400002001480068704700000C0000200F
:100930000448054900684968044AC1F30221515C32
:10094000C84070470C00002000100240964B000881
:100950000448054900684968044AC1F3C221515C52
:10096000C84070470C00002000100240964B000861
:100970000E4A51680E4801F00C03042B11D0082BCD
:100980000FD10C48C1F38343C903C05C0AD5516839
:10099000084AC1F34041921E515C054A5043B0FBE6
:1009A000F1F07047044948437047000000100240CE
:1009B00000127A00764B000800093D002DE9F84F3F
:1009C000040070D02078C04DC00749D06868C0F3DB
:1009D0008100012807D06868C0F38100022809D18E
:1009E0006868C00306D52868800339D56068002888
:1009F000E7D035E06068B0F5803F0BD010B1B0F5BE
:100A0000A02F11D0286820F480302860286820F4B6
:100A1000802002E0286840F480302860606890B14F
:100A2000FFF754FE06460AE0286840F4802028605C
:100A3000F0E700BFFFF74AFE801B642873D82868E0
:100A40008003F7D50CE0FFF741FE064605E000BF46
:100A5000FFF73CFE801B6428F0D828688003F7D499
:100A600020789A4E80074FF001094FF0000839D5E1
:100A7000686810F00C0F07D06868C0F38100022886
:100A800009D16868C00306D42868800714D5206996
:100A9000012808D110E02069B0B1C6F80090FFF736
:100AA00015FE074605E00AE1FFF710FEC01B02280D
:100AB000C4D828688007F7D52868616920F0F80055
:100AC00040EAC10028600DE0C6F80080FFF7FEFD97
:100AD000074604E0FFF7FAFDC01B022823D8286868
:100AE0008007F7D4207800072CD57948A169D9B1BF
:100AF000C0F80090FFF7EAFD074604E0FFF7E6FDC7
:100B0000C01B02280FD8686A8007F7D571484FF4D8
:100B1000FA510068B0FBF1F0009000BF0098411E50
:100B20000091FAD20EE080E0C0F80080FFF7CEFD21
:100B3000074604E0FFF7CAFDC01B022875D8686AA3
:100B40008007F7D42078400760D5E8690027C00007
:100B500008D4E86940F08050E861E869012700F0B6
:100B6000805000905C480168C90513D40168834631
:100B700041F480710160FFF7A9FD824606E000BFE5
:100B8000FFF7A4FDA0EB0A0064284ED8DBF80000B4
:100B9000C005F5D5E06801280AD008B1052813D0B2
:100BA000286A20F001002862286A20F0040002E090
:100BB000286A40F001002862E06841F2883B98B161
:100BC000FFF784FD82460BE0286A40F004002862AB
:100BD000EEE700BFFFF77AFDA0EB0A0159455AD8AE
:100BE000286A8007F6D50CE0FFF770FD824605E025
:100BF000FFF76CFDA0EB0A0159454CD8286A800725
:100C0000F6D41FB1E86920F08050E861E06988B34C
:100C10006968C1F38101022944D00228C6F86080C6
:100C200004D0FFF753FD044638E034E0FFF74EFDF3
:100C3000074604E0FFF74AFDC01B02282BD82868AE
:100C40008001F7D4206AB0F5803F05D16868A168BB
:100C500020F4003008436860D4E90801084369685B
:100C600021F4741108436860C6F86090FFF72EFD08
:100C7000044606E025E000BFFFF728FD001B022820
:100C800009D828688001F7D51BE000BFFFF71EFDDB
:100C9000001B022802D90320BDE8F88F28688001D4
:100CA000F4D40EE00128F7D06868226A00F480319D
:100CB000914204D1616A00F47010884201D0012091
:100CC000EAE70020E8E7000000100240000042428E
:100CD000800442420C0000200070004010B5401E0D
:100CE000B0F1807F01D3012010BD4FF0E02460619E
:100CF0000F21601703F0AEFD0020A06107202061E6
:100D0000002010BD70477047F8B5016804460868B8
:100D1000CA684B6910F00F0F4FF0000559D003F06F
:100D2000010602F49077374365D0C10705D0D1059D
:100D300003D5616C41F001016164410705D5D90714
:100D400003D0616C41F002016164810705D5D907C8
:100D500003D0616C41F004016164010707D502F022
:100D60002001314303D0616C41F008016164616C82
:100D700000293AD0800604D5900602D5204603F01B
:100D80009BFC20684069616CC0F38010090700D4A7
:100D900060B3204603F069FC20684069400621D515
:100DA0002068143050E8001F21F0400140E8001294
:100DB000002AF5D1E06BA8B16D494163E06BFFF704
:100DC00043FB002811D0E06B416B01B0BDE8F0405F
:100DD000084783060FD593060DD52046BDE8F84099
:100DE00003F06ABC2046FFF78EFFF8BD2046FFF7F0
:100DF0008AFF6564F8BD266B2023012E7CD1C606D0
:100E00007AD5D60678D508684868009048694FF0CA
:100E10000206400640D5E16B086840680004000CFB
:100E2000E8D0A28D8242E5D9E085886920282DD0BE
:100E300020680C3050E8001F21F4807140E8001257
:100E4000002AF5D12068143050E8001F21F001017C
:100E500040E80012002AF5D12068143050E8001F45
:100E600021F0400140E80012002AF5D184F8423018
:100E7000256320680C3050E8001F21F0100140E885
:100E80000012002AF5D1E06BFFF7BAFA6663A08D75
:100E9000E18D401A81B22AE0A08DE18D401A81B225
:100EA000E08D0028A6D00029A4D022680C3252E898
:100EB000000F20F4907042E80007002FF5D1206861
:100EC000143050E8002F22F0010240E80027002FE4
:100ED000F5D184F84230256320680C3050E8002FAB
:100EE00022F0100240E80023002BF5D16663204673
:100EF000FFF708FFF8BDFFE705062BD5150629D536
:100F000094F841002128F5D1A068B0F5805F01D1A7
:100F10002069B0B1206A411C2162216800784860D4
:100F2000E08C401E0004000CE084E3D12068C1681E
:100F300021F08001C1602068C16841F04001C160BA
:100F4000D8E7206A0088C0F308004860206A801C47
:100F50002062E5E74006CDD55006CBD5CA682046CD
:100F600022F04002CA6084F8413000F076F8C1E710
:100F70005B46000870B5040004D094F841000025D9
:100F800010B106E0012070BD84F84050204600F00A
:100F900023F8242084F841002068C16821F400511E
:100FA000C160204603F0EAFB2068016921F490410A
:100FB00001612068416921F02A0141612068C1680E
:100FC00041F40051C1606564202084F8410084F838
:100FD00042006563002070BD30B585B000240094E8
:100FE0000194029403940068184988422CD118484F
:100FF000816941F480418161816901F480410491FA
:10100000816941F0040181618069124D00F00400A2
:1010100004904FF400700090022001900320039090
:1010200069462846FFF75CFA2815CDE900046946B1
:1010300028460294FFF754FA002211462520FFF7B4
:10104000A9FB2520FFF798FB05B030BD0038014013
:10105000001002400008014070477047FEE70000A2
:1010600070B586B000241E48009401940294039445
:10107000816941F010018161816901F010010491E1
:10108000816941F020018161816901F020010491B1
:10109000816941F0040181618069124D00F0040012
:1010A000049000224FF400512846FFF709FB0E4E32
:1010B000002208213046FFF703FB42F208000090AF
:1010C0000120CDE901040220039069462846FFF77C
:1010D00007FA69463046FFF703FA06B070BD000014
:1010E0000010024000100140000801400C4810B5FB
:1010F0000A4901604FF4E1314160002181600C2216
:10110000C160C0E904128161C161FFF733FF0028AB
:1011100003D0BDE81040FFF772B910BD00380140A0
:10112000B0080020FEE70A46002100F023B80000C6
:101130000D480E490246C0E9001200218160C160DD
:10114000016141618161C16101620163C16241620A
:1011500000F148018163C1634FF4A051016441640F
:1011600003480260704700000809002048454150CC
:101170002C00002010B5002A21D000281FD0002408
:101180004FEA04035B1C41EA0424042BFAD310F059
:10119000030305D10BE000BF521E00F8011B5B1CCE
:1011A000002A0CD0042BF7D301E010C0121F042A30
:1011B000FBD202E000F8011B521E002AFAD110BD3A
:1011C000FEE7704702480068002800D000477047DB
:1011D0004400002010B5044600F0BEF84648002147
:1011E0000A22017045480170454801704548016078
:1011F0004548016045480170454801704548017007
:101200004548016045480160454801604548017016
:1012100045480068B0FBF2F0444A1060444A106848
:1012200030B14448006818B1126802C0521EFCD1A7
:101230004148016041480160414801604148016006
:1012400041480160414801604148016041480170E6
:1012500001F06AFF02F01CF8204601F03BFA2088FA
:10126000002847D1204601F031FD2088002841D1D7
:10127000204601F037FD208800283BD1204601F0B0
:10128000DDFD2088002835D1204601F073FF20883D
:1012900000282FD1204602F021F92088002829D1EA
:1012A000204602F08BFB2088002823D1204601F045
:1012B00081FC208800281DD1204601F019FB2088E0
:1012C000002817D1204603F037F82088002811D1D4
:1012D000204602F0D3FA208800280BD1204603F0E4
:1012E00085F82088002805D101F0F2F9BDE810400A
:1012F000FFF767BF10BD000058000020600000200D
:10130000A800002014010020180100208E000020F9
:101310008F000020900000209C000020A0000020F2
:10132000A4000020B0000020E84B0008AC00002022
:10133000C44B0008C04B0008380000203C000020CF
:101340004000002044000020480000204C00002005
:1013500050000020DE0000200548064900680968AA
:1013600000EB8100044920F007000860704700008E
:10137000C04B0008C44B000830000020184810B5CE
:10138000007801282BD1FEF7D1FE044615480178DC
:1013900001B3491E11F0FF0101701BD11248007802
:1013A000C0B901F0AFFE11490870114900EB4000CF
:1013B00051F820100F4801600F480068814209D0A1
:1013C00051F88C0F401C08600C480168491C0160F2
:1013D000FEF7FCFE2046BDE81040FEF7ABBE10BD98
:1013E0006000002058000020A80000208F0000208E
:1013F000643200201801002014010020D4000020D5
:101400002DE9F041044626480E461746007810B1F3
:1014100042F6E1600FE064B1FEF788FE8046FEF719
:101420008DFF204D2878401CC0B22870012805D0BF
:1014300006E045F6C3501080BDE8F08101F0EEFFF4
:10144000FEF78CFF4046FEF775FE1748C4E900061C
:101450000026266284F825602020A66284F82400F5
:1014600004F1080001F081FD204601F0D5FC0F4990
:101470000888401C0880FEF759FE0446FEF75EFF10
:101480002878401E10F0FF00287001D101F0D4FF31
:10149000FEF764FF2046FEF74DFE3E80CCE70000DD
:1014A00058000020A80000204D5554588C00002002
:1014B0002DE9F04F0646854889B01C460078129DFC
:1014C00017468B4610B146F2AE10C3E036B147B1B5
:1014D000B7F5004F05D045F62560BBE045F6C35093
:1014E000B8E07B493068884202D045F6C450B1E08C
:1014F0004FF000080CB1C4F80080FEF717FE009012
:10150000FEF71CFF96F82500724A012190B1924621
:10151000336A1268934222D1401C86F825000CB130
:10152000B06A2060FEF71AFF0098FEF703FE45F24E
:1015300082708FE01068306290F8370086F82400DF
:1015400086F825100CB1B06A2060FEF707FF0098FE
:10155000FEF7F0FDA5F8008009B0BDE8F08F380473
:1015600007D5FEF7FBFE0098FEF7E4FD46F2B0104B
:1015700070E0594802783AB1FEF7F0FE0098FEF7A5
:10158000D9FD46F6635065E08146017001F046FFE3
:10159000FEF7E4FE0098FEF7CDFD376ADAF80000AA
:1015A00097F8372090F837108A421ED997F83600FE
:1015B00008282ED2DFE800F00413161613131616AF
:1015C000384601F0DFFEDAF8000090F8370087F8BF
:1015D000370001F0AFFD384601F084FE05E087F8E2
:1015E000371002E0384601F0A7FC5B460422314682
:1015F00001A801F02FFCFEF799FD0646FEF79EFEBE
:1016000099F80000401E10F0FF0089F8000023D078
:1016100024E0FEF78BFD0446FEF790FE99F80000EB
:10162000401E10F0FF0289F800200CD101F004FFE9
:101630002A48008838B1FEF791FE2046FEF77AFD71
:1016400001F0CAFE04E0FEF789FE2046FEF772FDB7
:1016500046F62D6028807FE701F0EEFEFEF77EFE65
:101660003046FEF767FD00F031F9FEF75FFD0646F4
:10167000FEF764FEDAF8001091F8350040B1012859
:101680000CD002281CD003280ED046F62E6010E0A5
:101690000CB1086C2060A5F800800BE00CB1086C60
:1016A000206046F2A91004E00CB1C4F8008047F2B3
:1016B000D9202880FEF752FE3046FEF73BFD4BE76F
:1016C0000CB1086C206045F6C250F2E758000020CB
:1016D0004D55545814010020A80000206C00002033
:1016E0002DE9F84F0446734815468A46007810B134
:1016F00046F20E2011E03CB1080008D0B1F5004FD1
:1017000005D045F6256008E045F6C35005E06A4976
:101710002068884204D045F6C4501080BDE8F88F98
:10172000FEF704FD0646FEF709FEDFF89091216AF8
:10173000D9F80000814207D0FEF710FE3046FEF7D0
:10174000F9FC45F28170B2E0DFF8748198F800107E
:10175000491CC9B288F80010012901D101F05EFED0
:10176000FEF7FCFD3046FEF7E5FCFEF741FE0646BF
:10177000A06294F82500DFF84CB1401E10F0FF0085
:1017800084F8250021D0FEF7D1FC0446FEF7D6FDF3
:1017900098F80000401E10F0FF0288F800200CD1DD
:1017A00001F04AFEBBF8000038B1FEF7D7FD204635
:1017B000FEF7C0FC01F010FE04E0FEF7CFFD20466E
:1017C000FEF7B8FC45F2837071E0208A04F1080747
:1017D000D0B3D9F8001094F8243091F837209A4209
:1017E00014D0084601F0CEFDD9F8001094F824007A
:1017F00081F8370001F09EFCD9F8000001F08EFD61
:10180000D9F80000304990F8370008703868002394
:101810001A468168216291F8370084F8240001207B
:1018200084F825002046009601F0FFFBFEF77EFCC1
:101830000446FEF783FD98F80000401E10F0FF02FA
:1018400088F8002026D027E0FFE70026266284F8EB
:101850002560FEF76BFC0446FEF770FD98F800006B
:10186000401E10F0FF0088F800000CD101F0E4FDEC
:10187000BBF8000038B1FEF771FD2046FEF75AFCB8
:1018800001F0AAFD04E0FEF769FD2046FEF752FCD8
:101890002E8043E701F0D0FDFEF760FD2046FEF705
:1018A00049FC5FEA0A4001D400F010F800202880CB
:1018B00034E70000580000204D5554581401002012
:1018C000A80000206C0000208E000020154810B5F4
:1018D0000078002824D114480078002820D1FEF791
:1018E00025FC044601F00EFC10490870104900EB7D
:1018F000400051F820000F4908600F4909688842EC
:1019000009D050F88C1F491C01600C480168491C23
:101910000160FEF756FC2046BDE81040FEF70ABC09
:1019200010BD000058000020A80000208F000020FB
:10193000643200201801002014010020D40000208F
:1019400070B504461248007810B146F662501DE0AA
:1019500010480078012802D045F6896016E00E4D47
:101960002878FA2802D345F209200FE0FEF7DEFBC3
:101970000646FEF7E3FC2878401C287001F04EFD77
:10198000FEF7ECFC3046FEF7D5FB0020208070BD52
:101990005800002060000020A80000202DE9F04140
:1019A00016460C460546FEF7C1FB0746FEF7C6FC89
:1019B00029460D480025012901D0057001E00121CB
:1019C00001700A480CB1046005E009490A2209685F
:1019D000B1FBF2F10160FEF7C1FC3846FEF7AAFB4D
:1019E0003580BDE8F0810000B0000020AC00002090
:1019F000E84B000870B504461848007810B146F668
:101A0000655029E016480078012802D045F6896023
:101A100022E0144D287890B1FEF788FB0646FEF7C9
:101A20008DFC2878401E10F0FF0028700AD0FEF7C9
:101A300095FC3046FEF77EFB46F663500CE046F61A
:101A4000645009E001F0F8FCFEF788FC3046FEF730
:101A500071FBFFF73BFF0020208070BD5800002085
:101A600060000020A800002070B50F4D04462878C3
:101A700018B145F68A60208070BD01F043FB0B4928
:101A800008700B4908700B4900EB400051F820002A
:101A9000094908600949086001202870FEF780FBA9
:101AA00043F69920E7E70000600000208F00002047
:101AB0008E00002064320020180100201401002054
:101AC0002DE9F0410646FEF731FB0546FEF736FCF0
:101AD0002E48002404602E4804802E4804802E489E
:101AE00004602E4804602E4804602E4804602E488E
:101AF00004602E480481FEF731FC2846FEF71AFBED
:101B0000FEF714FB0746FEF719FC2948056818E0A4
:101B1000FEF70CFB0746FEF711FCC5F8B040C5F810
:101B2000B44045F8744F2C63AC61AC82EC826C62BB
:101B3000AC62FEF75DFC45F8200FA5F1340084810E
:101B4000AD6AFEF70BFC3846FEF7F4FA002DDFD144
:101B5000FEF7ECFA0746FEF7F1FB1648056806E0CB
:101B6000FEF7E4FA0746FEF7E9FBAC85AD69FEF740
:101B7000F5FB3846FEF7DEFA002DF1D102F082FACD
:101B800002F0CCFC3480BDE8F0810000740000203D
:101B90006E000020BE000020D0000020E4000020E5
:101BA000040100205C000020A0000020583200202A
:101BB000D800002094000020F8B504466946244867
:101BC00000F0A4FBBDF8000058BB6A4600210220CB
:101BD00000F0FAFBBDF8000018BBFEF7A7FA0746B5
:101BE000FEF7ACFB1B4E00253560FEF7B7FB384611
:101BF000FEF7A0FA184919480A6803689A4202D900
:101C0000B2FBF3F010B90A21B2FBF1F06A460021F1
:101C100000F0DAFB69460E4800F0F0F9BDF800006C
:101C200008B12080F8BDFEF781FA0746FEF786FB73
:101C30000B480C490560306808600B4901200870AA
:101C4000FEF78CFB3846FEF775FA2580F8BD0000DC
:101C500098350020C0000020E84B0008D44B000855
:101C6000D0000020C4000020CC0000200248006802
:101C7000002800D000477047480000202DE9FF4FA2
:101C800083B004467248DDE91785DDE910960078D7
:101C9000DDF854A0139F10B147F24A102AE04CB16E
:101CA000059850B166B16B48006887420BD246F682
:101CB00030601FE047F2AD101CE047F24F1019E012
:101CC00046F62F6016E01298B84202D346F631600D
:101CD00010E046F27320B9F1200F0BD25FEA090140
:101CE00003D0B9F11F0F02D008E05B4900E05B4967
:101CF0008C4203D0288007B0BDE8F08F204601F069
:101D00006DFE4FF0000BA5F800B05FEAC8700AD076
:101D10005FEA887007D5304600215A4601E004C0CA
:101D2000491CB942FBD31298CDE9007806EB800537
:101D3000DDE905012B46324600F0AEFA0599A162B5
:101D40000699E1620499216284F83790C4F850A0A2
:101D5000A56020605FEA0A0024D060651698A7633A
:101D600066626060A4F83C800020594604EB800263
:101D7000401C916710F0FF00F8D004F16000149946
:101D800000F0FEFF204600F075F8FEF7CFF906469A
:101D9000FEF7D4FA324D2878401CC0B228700128D2
:101DA00003D004E02F480068D7E701F037FBFEF7C7
:101DB000D5FA3046FEF7BEF994F8370001F0BAF9CB
:101DC000204601F0ABFA204601F0CAFD26490888FA
:101DD000401C088025480078012821D0FEF7A6F98C
:101DE0000446FEF7ABFA2878401E10F0FF01297078
:101DF0000ED101F021FB1E48008848B1FEF7AEFA73
:101E00002046FEF797F907B0BDE8F04F01F0E4BABD
:101E1000FEF7A4FA07B02046BDE8F04FFEF78AB9F6
:101E2000FEF784F90446FEF789FA2878401E10F080
:101E3000FF01297001D101F0FFFAFEF78FFA204669
:101E4000FEF778F907B0BDE8F04FFFF73FBD00009F
:101E500058000020E44B000894310020D0300020CE
:101E6000A8000020AC000020DC0000206000002062
:101E70006C00002002490968002900D0084770471B
:101E8000380000202DE9F041044651480E46007804
:101E900010B147F24E100AE04E48844202D147F298
:101EA0004C1004E04C48844204D147F24D100880A5
:101EB000BDE8F0815CB9FEF739F90546FEF73EFA58
:101EC00046480468FEF74AFA2846FEF733F9FEF75B
:101ED0002DF90746FEF732FA414D2878401CC0B272
:101EE0002870012801D101F099FAFEF737FA384637
:101EF000FEF720F994F8360008283BD2DFE800F01E
:101F000004082B2B0B082B2B204601F03BFA02E098
:101F1000204602F097F804F1600000F017FF204619
:101F200000F064F8204601F02DFD2E490888401E7F
:101F30000880204601F052FDFF2084F83600FEF7AD
:101F4000F5F80446FEF7FAF92878401E10F0FF0075
:101F5000287030D031E094F834000728D8D2DFE878
:101F600000F00405040505050500D1E7204601F051
:101F70002EF8CDE7FEF7DAF80446FEF7DFF9287809
:101F8000401E10F0FF0028700CD101F055FA1648E1
:101F9000008838B1FEF7E2F92046FEF7CBF801F0F1
:101FA0001BFA04E0FEF7DAF92046FEF7C3F846F61E
:101FB0002D6030807CE701F03FFAFEF7CFF9204634
:101FC000FEF7B8F800203080BDE8F041FFF77EBC96
:101FD00058000020D030002094310020140100204F
:101FE000A8000020DC0000206C00002002490968E5
:101FF000002900D0084770473C0000207FB50D46FF
:102000000446FEF793F80646FEF798F91CB114480B
:102010000068844208D1FEF7A1F93046FEF78AF83D
:1020200047F2571028807FBDFEF798F93046FEF73B
:1020300081F80C48007858B10020CDE902050090E5
:102040000346024601902146074800F085FC7FBD0B
:1020500004B029462046BDE8704001F0C1BD000033
:1020600014010020580000205452455302490968C9
:10207000002900D008477047400000202DE9F047B4
:102080008146574814461E460078884610B146F2ED
:10209000AE1006E0080006D0B1F5004F03D045F6BB
:1020A000256018803DE0002704B12760FEF73EF868
:1020B0008246FEF743F94B4D2968486CD8B1401E63
:1020C000804648640CB1086C2060FEF791F92968DD
:1020D0000A6C801AC1F8A000D1F8A420824201D273
:1020E000C1F8A400FEF73AF95046FEF723F837800E
:1020F0004046BDE8F0875FEA084007D5FEF72EF9B5
:102100005046FEF717F846F2B01009E0364801785D
:1021100049B1FEF723F95046FEF70CF846F6635036
:1021200030800020E5E701218046017001F076F95A
:10213000FEF714F95046FDF7FDFF00214B4607223C
:10214000084600F087FEFDF7F1FF8146FEF7F6F83E
:1021500098F80010491E11F0FF0188F8001001D115
:1021600001F06AF9FEF7FAF84846FDF7E3FFFFF7DA
:10217000ADFBFDF7DBFF8046FEF7E0F8286890F83E
:10218000351031B1012916D003291AD046F62E6038
:102190001BE074B1006C2060FEF72AF929680A6C14
:1021A000801AC1F8A000D1F8A420824201D2C1F85F
:1021B000A40037800AE00CB1006C206046F2A91040
:1021C00003E004B1276047F2D92030802868446CCE
:1021D000FEF7C4F84046FDF7ADFF204689E7000052
:1021E0005800002014010020A80000202DE9F0472D
:1021F0000546274816460F4600781C4610B147F2A0
:1022000059100AE046F2D5203FB136B1FDF78EFFF6
:102210008146FEF793F81DB104E01880BDE8F08711
:102220001C4805684FF00008286858B195F83C0034
:10223000C00713D0FEF792F84846FDF77BFF002059
:10224000696A1AE0FEF78AF84846FDF773FFC7F897
:10225000008047F25210C6F800800AE0FEF77EF8D0
:102260004846FDF767FFC7F8008047F25410C6F8EC
:1022700000802080D2E7401C091D0A68002AFAD09D
:102280003860A96B081A3060A4F80080C6E7000027
:10229000580000201401002010B5029C02EB8402BB
:1022A00022F007024FF0807442E90204164842F817
:1022B0000C0C4FF0123042F8100CA2F114004FF049
:1022C000023240E903134FF0113140F8101CD100E5
:1022D00040F8141C4FF0093140F8181C910040F8E8
:1022E0001C1C4FF007314FF0033440F8201C6100F4
:1022F00040F8241C4FF0053140F8281D5100C0E97A
:10230000092440F8041D10BDE13C00081FB5104A27
:10231000904202D147F25B1004E00E4A904203D192
:1023200047F25C1008801FBD0B4A127852B10022A0
:10233000CDE902210146009213460192074800F0C0
:102340000BFB1FBD04B0BDE8104001F099BD0000BB
:10235000D0300020943100205800002054535553B1
:1023600070B51548006800B18047FEF741F8134C7E
:10237000134A21681268914207D0D1F89430C31AE9
:1023800041F8903F8D682B448B60C2F89400FDF7B4
:10239000B7FF2168D1F8B020824201D2C1F8B00065
:1023A000084AD1F8B4301068834201D2C1F8B400B1
:1023B0000020106070BD00004C00002014010020BF
:1023C00018010020A40000202DE9F0410746344800
:1023D0000E461546007810B147F275201EE0314CCC
:1023E000207810B146F6635018E046B1022E06D0B0
:1023F000042E05D0082E02D045F625600EE05FB110
:10240000FDF794FE8046FDF799FF2078401CC0B28E
:102410002070012805D006E047F27E201080BDE83C
:10242000F08100F0FBFFFDF799FF4046FDF782FECB
:1024300032461D4E2B463946306801F0C5FD2888CE
:1024400098B1FDF773FE0546FDF778FF2078401E32
:1024500010F0FF01217001D100F0EEFFFDF77EFFCB
:102460002846BDE8F041FDF765BE306800F08AFF00
:10247000FDF75CFE0646FDF761FF2078401E10F078
:10248000FF00207001D100F0D7FFFDF767FF304655
:10249000FDF750FEFFF71AFA00202880BFE7000082
:1024A00058000020A8000020140100202DE9F0476A
:1024B000594EDDE90854367816B147F27520A5E08B
:1024C000DFF858A19AF8006016B146F663509DE017
:1024D00015F00E0647F27E2945F6256705D0022E37
:1024E00003D0042E06D0082E07D11BB912B909B9A2
:1024F00000287CD035F01E0C02D02780BDE8F08784
:10250000C5F3001547F2792C47F278284FF47A7713
:102510003DB142F20F75A94212D900BFA4F800C024
:10252000ECE7BB4202D347F27B206FE03B2A02D9A3
:1025300047F27A206AE03B29F0D8632802D804E009
:10254000B84202D3A4F80080D8E7354D4FF4FA7CA6
:10255000C1EB01112D68BCFBF5FC63446B43B3FB7D
:10256000F7F34FF46167784300EB8100104400FB00
:102570000537E7B3FDF7DAFD8046FDF7DFFE9AF891
:1025800000005546401CC0B28AF80000012801D165
:1025900000F044FFFDF7E2FE4046FDF7CBFD32467A
:1025A000204E23463946306801F00EFD208898B150
:1025B000FDF7BCFD0446FDF7C1FE2878401E10F073
:1025C000FF01297001D100F037FFFDF7C7FE20465B
:1025D000BDE8F047FDF7AEBD306800F0D3FEFDF773
:1025E000A5FD0646FDF7AAFE2878401E00E00FE094
:1025F00010F0FF00287001D100F01EFFFDF7AEFEC5
:102600003046FDF797FDFFF761F90020208075E760
:10261000A4F8009072E7000058000020A8000020F5
:10262000E84B00081401002000B585B000F01CF84C
:10263000FDF7DEFE04AA002103920091CDE901100E
:1026400006480749002300781A4600EB400001EBDA
:102650008001044800F080F905B000BD8E00002024
:10266000643200205449434B02480068002800D0DF
:10267000004770475000002010B5FDF757FD044695
:10268000FDF75CFE07490878401C0870FDF766FE00
:102690002046FDF74FFDFFF7C7FFBDE81040FEF7EE
:1026A0006DBE0000580000204FF0E021401E486140
:1026B0000648026822F07F420260086940F0050087
:1026C0000861086940F002000861704720ED00E0F1
:1026D00070470000034A00211160034A1180018005
:1026E00070470000780000207C0000202DE9F05F9A
:1026F0009A4690460D4604460A9FFDF717FD83460D
:10270000FDF71CFE5FEA080024D0012807D0B0F5D1
:10271000004F1FD06FF4004118EB010F12D1206A57
:1027200030EA0500C4E9080A208A04F108064FF0DF
:10273000000990B14B4D2878401CC0B22870012888
:1027400015D016E0FDF70AFE5846FDF7F3FC45F6F6
:10275000256068E0206A2843E4E7FDF7FFFD58465E
:10276000FDF7E8FCA7F80090206ABDE8F09F00F0B4
:1027700055FEFDF7F3FD5846FDF7DCFC36682FE00B
:1027800090F88410766801F00F01012919D0022910
:102790001ED004290DD008290FD0FDF7C7FC044630
:1027A000FDF7CCFD2878401E10F0FF00287026D0E1
:1027B00032E0216AC26F114007E0216AC26F114006
:1027C00009E0C16F236A0A4699438A4204D006E0B1
:1027D000C16F226A914311B1524600F047F816B119
:1027E000B0680028CCD1FDF7A1FC0646FDF7A6FD98
:1027F0002878401E10F0FF00287017D018E000F075
:102800001BFE1948008838B1FDF7A8FD2046FDF7EA
:1028100091FC00F0E1FD04E0FDF7A0FD2046FDF78E
:1028200089FC43F6FF20388000209EE700F004FE7C
:10283000FDF794FD3046FDF77DFC5FEA084001D4CA
:10284000FFF744F8FDF772FC0546FDF777FD246AB3
:10285000FDF784FD2846FDF76DFCA7F800902046A3
:1028600083E70000A80000206C00002070B5002560
:10287000C0F8801080F8355080F834500446026467
:1028800090F83600082813D2DFE800F01212040492
:1028900012120F0F032802D1204601F0D3FB20466D
:1028A00000F008FD84F8365002E0042084F8360079
:1028B0002046BDE8704000F08ABB00000A4C0B4D7A
:1028C000FDF734FC0646FDF739FD2068401C20600A
:1028D0002868401C2860FDF741FD3046FDF72AFCC2
:1028E000FEF770FCECE7000054000020C000002060
:1028F00000B50E4A89B0002111600B2205910691A6
:10290000CDE907200A480B4A0B4B006812681B6888
:102910000292CDE903011F20CDE900030023074AFD
:1029200007A10C48FFF7AAF909B000BD5400002028
:10293000A84B0008A44B0008A04B0008BD280008C5
:1029400075432F4F532D4949492049646C652054E4
:1029500061736B00D03000202DE9F84F1D46DDE992
:102960000CB4DDE90AA916460F468046FDF7DEFBEA
:102970000090FDF7E3FC1D481D4A01881288914232
:102980002DD2491C89B201801A4802888A4200D29D
:10299000018019490868C0F80080C0E90276058204
:1029A000C0F814A0A0F81890C0F81CB040680860E7
:1029B000124801210181124901604160002000F0AC
:1029C000B9FB1048007808B10F490870002020803A
:1029D000FDF7C4FC0098BDE8F84FFDF7ABBB0B4911
:1029E0000888401C088044F25360F0E76C00002027
:1029F000B04B00086E00002064000020643200200C
:102A0000943100208E0000209000002070000020F3
:102A10003EB5374C374B02A920680268D51A9A4256
:102A200045D015DC344BD2182DD0344BD21822D0DF
:102A3000334BD21832D0334BDA4208D1C269CDE9D8
:102A40000021038B028AC168806801F027F83EBD2F
:102A50002D4AAA181ED02D4BD21824D02C4BDA4266
:102A6000F5D1C269CDE90021038B028AC168806873
:102A700000F08CFB3EBD0091028BC3694169806808
:102A8000FFF734FE3EBD018BC269806802AB00F0E7
:102A900031FD3EBD806801F0A3F83EBD018BC269E7
:102AA000806802AB21E0806801F0EAF93EBD194878
:102AB0001949007800EB400001EB800000F0DAFCDF
:102AC000206802AB0021C269144801F015F91448CE
:102AD0000168491E0160E9D1124909680160FDF7EA
:102AE00087FC024602AB00210F4801F005F93EBD0C
:102AF000680000205449434BADBAB2BE0DF90BFA41
:102B0000F2F8F7FF0006F6FF00F7FDF700FFEFFF12
:102B100003FE0FFE9000002064320020A834002045
:102B2000100100200C010020983500201D4D1E4C86
:102B30001E4E00BFFDF7FAFA0746FDF7FFFB20889F
:102B400008B3FDF70BFC3846FDF7F4FAFDF750FC2F
:102B50000746FFF75DFFFDF74BFC2968C01B81426C
:102B600000D22860FDF7E2FA0746FDF7E7FB306880
:102B7000406830602088401E2080FDF7EFFB38461B
:102B8000FDF7D8FAD6E70A490020088108604860B6
:102B900000F0E0FAFDF7E2FB3846FDF7CBFAFEF76E
:102BA00095FEC5E7740000206C000020680000203E
:102BB00064320020F0B52F492F4D89B000220A80E1
:102BC000296831B12D4E3188022905D244F2546171
:102BD00035E044F2526132E029490023294F0A606E
:102BE000296801F1200410E041F8087B5B1C41F8E2
:102BF000082B9BB241F8042C21F8102B41F80C2C27
:102C000021F8082C41F81C4C2034B6F800C063456C
:102C1000EAD32B6841F81C3C1B490B601B490B6035
:102C20001B490A801B490A801B490B6853B11B4B87
:102C30001B4D1C682D68AC4207D244F256610180DE
:102C400009B0F0BD44F25561F9E7032405920692FC
:102C5000CDE907401868134B09681B68CDE90302EA
:102C60000092CDE9011300230F4A10A11648FFF787
:102C700005F8E5E770000020AC4B0008B04B0008F9
:102C8000740000204E4F4E45640000206800002074
:102C90006C0000206E000020B44B0008BC4B000804
:102CA000E44B0008B84B00082D2B000875432F4F4C
:102CB000532D494949204953522051756575652066
:102CC0005461736B0000000094310020034A00211E
:102CD0001160034A118001807047000080000020CD
:102CE00084000020F0B5164C216859B1154E31888A
:102CF00059B189B2491E22688FB2002502F1100332
:102D000029460EE045F21E7118E045F21D7115E0EE
:102D1000E2E802316D1C22F8081BADB242F8041C37
:102D20001033BD42F4D3116051601181D160064A65
:102D30002368136033889380D18011810180F0BDB6
:102D4000CC4B0008C84B00085832002010B542890F
:102D500092B10A4903680C681C6043680B60CB8819
:102D600044891B1BCB808B88448923448B800021A2
:102D70004181818101604160104610BD58320020C0
:102D80000181002141818181016041607047000023
:102D9000F0B54489DDE905E70589AC4202D346F286
:102DA00093501EE01B4DAE88CEB12C68761ED4F831
:102DB00000C0C5F800C0AE80EE88761CB6B2EE80CA
:102DC000B5F808C0B44500D22E814689002556B119
:102DD000DB060ED403681C60046025600CE045F23D
:102DE0001D703880F0BD046001234460438125607C
:102DF00005E043682360446043895B1C4381868906
:102E000043899E4200D2838161602281C4F80CE034
:102E10003D80F0BD583200200022074B05A14261E1
:102E2000C161196819B18161486118607047826198
:102E3000FBE700002000000088000020034A00217A
:102E40001160034A11800180704700008800002053
:102E50008C0000202DE9F041114D07460C462868F2
:102E60000026194680F8342080F8356000F064FDB3
:102E700064B1FC6004F1080601223946286800F0BC
:102E800011F83946304600F075F802E02868C68728
:102E9000066320462968BDE8F04100F01BB8000039
:102EA0001401002010B5C2870024234601630EE000
:102EB0004B6041F8103B641C41F8103BA4B241F850
:102EC0000C3C21F8083C41F8043C41F8180C9442B1
:102ED000EED310BD38B14268C1F8C020816889685E
:102EE000096AC161704791F83400022803D00728AD
:102EF00003D004A002E004A000E005A0C1F8C000D7
:102F000070470000200000005461736B20510000E6
:102F10005461736B2053656D0000000005A2C1F879
:102F2000C020816811B18968096A00E001A1C1610E
:102F3000704700002000000070B580F83710C68F81
:102F4000056B0FE0EC68208A0834012807D9294670
:102F5000204600F04FF82946204600F00BF8761E78
:102F6000B6B22035002EEDD170BD00210160416068
:102F70000181704730B58A68002392F83740028992
:102F80001AB1521C028102680BE0012202814B60DF
:102F90000B60016014E0956895F83750A54203D89E
:102FA0005268002AF7D107E032B1146854B1C1E980
:102FB00000426160116030BD4B6042680A60516040
:102FC000416030BD1160C1E90032016030BD70B5B3
:102FD0000646C48F056B07E0E8682946083000F014
:102FE00009F8641EA4B22035002CF5D10020F0872A
:102FF000306370BD10B502890023012A0BD00A6826
:1030000062B14C6874B1546022600289521E028120
:103010004B600B6010BD03604360F6E74A681360C5
:103020000260F2E753604260EFE7F8B50C460646EF
:1030300091F836100025069808294ED2DFE801F0F5
:103040004D4D04044D4D282894F83410032910D018
:10305000A265A4F85C30206436B12046FFF7B7FFC4
:1030600021463046FFF75AFF94F83600032806D071
:1030700008E000902146304600F030F8ECE72046AA
:1030800000F0E0FF204600F015F984F8365020E00B
:1030900094F83410032910D0A265A4F85C302064A1
:1030A00036B12046FFF793FF21463046FFF736FF43
:1030B00094F83600072806D008E0009021463046F4
:1030C00000F00CF8ECE7204600F0BCFF042084F888
:1030D000360084F8355084F83450F8BD70B50C6B68
:1030E000049DC98F0AE0E668864204D1C4E904025F
:1030F0002383E56170BD491E89B220340029F2D1D5
:1031000070BD000010B50024064802E02034E4B28F
:10311000001D01680029F9D00846FDF712F8204487
:10312000C0B210BD34000020014900200860704783
:103130003400002000F01F0241090120C2F11F02EB
:103140009040034A52F82130034342F8213070473F
:103150003400002000F01F0241090120C2F11F02CB
:103160009040034A52F82130834342F8213070479F
:1031700034000020034A00211160034A11800180BD
:103180007047000094000020980000202DE9FF4FB8
:1031900083B01F46DDE9109A93460646FCF7C6FF4A
:1031A0000546FDF7CBF8384C2078401CC0B22070A3
:1031B000012801D100F032F9FDF7D0F82846FCF7DC
:1031C000B9FF358A06F108001DB1B90530D5006890
:1031D0003CE0F80601D4002300E01023CDE9009A7A
:1031E0005A4606F120000499FFF7D2FDFCF79EFF36
:1031F0000546FDF7A3F82078401E10F0FF0121706E
:103200000ED100F019F92148008848B1FDF7A6F861
:103210002846FCF78FFF07B0BDE8F04F00F0DCB8A0
:10322000FDF79CF807B02846BDE8F04FFCF782BFD9
:10323000006801255B46D0E90181CDF80090304659
:10324000049AFFF7F2FE6D1E4046ADB2002DF1D19B
:10325000FCF76CFF0546FDF771F82078401E10F072
:10326000FF00207001D100F0E7F8FDF777F828465D
:10327000FCF760FF380401D4FEF728FB0021AAF810
:10328000001007B0BDE8F08FA80000206C000020FF
:103290000020074B014600BF00EB400203EB820217
:1032A000401C11811160C0B251602028F4D37047D6
:1032B0006432002010B5044690F83700FFF73AFF5B
:1032C000074994F8370009788842204603D1BDE8C1
:1032D000104000F023B8BDE8104000F003B8000033
:1032E0008E00002090F837100B4A01EB410102EBF1
:1032F000810100220B8943B15B1C0B810B68C0E983
:1033000003320A6810610860704701230B81C260B4
:1033100002610860486070476432002090F83710FE
:103320000A4A01EB410102EB810100220B893BB10A
:103330005B1C0B81C2604A680261D06048607047C4
:1033400001230B81C26002610860F7E7643200204C
:1033500010B50289002A14D0012A12D00021022AB5
:1033600007D0D0E90024D3681961C2E90314E260F0
:1033700005E0D0E90023C2E90313C3E90321C0E952
:10338000003210BD70B5054690F83700114900EBCA
:10339000400001EB8001D5E90302002442B10B8912
:1033A0005B1E0B81D06090B102612C61EC6070BD3E
:1033B00028B10A89521E0A8104610860F5E70C8170
:1033C0000C604C6095F83700FFF7C4FEEDE74A60EB
:1033D000EBE700006432002010B5FCF7A7FE0B49B4
:1033E0000446002008700B480949016051F88C0F11
:1033F000401C086008480168491C0160FCF7E1FEB8
:103400002046BDE81040FCF795BE00008F0000206C
:103410009431002018010020D4000020044810B589
:103420000078012803D1FCF7E3FF0249086010BDD2
:10343000A80000209C0000200A4810B50078002851
:103440000ED1FCF7D5FF08490968401A07490A68F8
:10345000824200D2086006490A68824200D20860AF
:1034600010BD0000A80000209C000020A00000204B
:10347000A400002070B5044614480078012824D127
:10348000FCF754FE0546FCF759FF2168B1B110481E
:10349000814213D04A6D12B1521E4A650ED1208965
:1034A00002280BD30B48007840B92046FFF750FFA5
:1034B0002068016D09B9084909684165FCF74EFFAC
:1034C0002846BDE87040FCF735BE70BDB000002056
:1034D000D0300020A8000020AC000020034A0021CA
:1034E0001160034A1180018070470000B400002081
:1034F000B80000202DE9F84F1E4690468946044644
:10350000FCF714FE0090FCF719FF208A04F108076D
:103510004FF0000B50B1DFF8BCA09AF80010491C26
:10352000C9B28AF8001001291AD01BE0256A681C6C
:103530000CD06D1CC4E90858FCF710FF0098FCF78C
:10354000F9FDA6F800B02846BDE8F88FFCF706FFA5
:103550000098FCF7EFFD46F6C55030800020F3E7F9
:10356000FFF75CFFFCF7FAFE0098FCF7E3FD5FEA6B
:10357000895002D53D893F680CE03F680125002352
:10358000B9687F681A462046CDF80080FFF74DFDE8
:103590006D1EADB2002DF2D1246AFCF7C7FD0546C1
:1035A000FCF7CCFE9AF80000401E10F0FF008AF8ED
:1035B000000001D1FFF740FFFCF7D0FE2846FCF7E2
:1035C000B9FD5FEA094001D4FEF780F9A6F800B022
:1035D0002046B9E7A80000200EB5964C964E20680C
:1035E000450004E028466A460021FEF7EDFE3078EB
:1035F0000128F7D16846FEF763FA9048226801680F
:10360000914206D90A462168B2FBF1F15FEA01084E
:1036100003D100680A21B0FBF1F8DFF824B2894F2A
:1036200042F2107A5FF00006FCF7E2FE0190FCF730
:1036300077FE85490860FCF779FD0546FCF77EFEBC
:103640008248834C016821600660FCF787FE2846AB
:10365000FCF770FD7F48236802689A422BD97E48A8
:10366000824202D25046012115E07C48824203D2B8
:103670004FF47A700A210EE07948824202D2642027
:10368000014608E07748824203D20A204FF47A715B
:1036900001E001205146B2FBF1F15843B0FBF1F0DB
:1036A000AAEB0000704980B2ABF800000A888242A1
:1036B00003D2088001E0ABF800A0FEF7D7FA00249F
:1036C000FCF734FD8146FCF739FE3D6842E000BF5F
:1036D000FCF72CFD0290FCF731FEDFF8909199F891
:1036E0000010491CC9B289F80010012901D1FFF767
:1036F00095FEFCF733FE0298FCF71CFDD5F8980008
:10370000C5E92660FCF712FD0290FCF717FE99F858
:103710000010491E11F0FF0189F800100CD1FFF7CD
:103720008BFE5348008838B1FCF718FE0298FCF76E
:1037300001FDFFF751FE04E0FCF710FE0298FCF7D4
:10374000F9FC55F89C0F0444FCF7F0FC8146FCF7AB
:10375000F5FD2D6AFCF702FE4846FCF7EBFC002D58
:10376000B6D12CB33C48844202D25546012015E024
:103770003A48844203D24FF47A750A200EE0384862
:10378000844202D26425284608E03648844203D2A7
:103790000A254FF47A7001E001255046B4FBF0F0A1
:1037A0008146FCF7C3FC0290FCF7C8FD3C6822E0B0
:1037B00000250120F4E700BFD4F89C006843B0FB6B
:1037C000F9F080B2504500D95046A4F88800B4F80A
:1037D0008A10814201D2A4F88A0004F1A8026B4643
:1037E000111D2046FEF702FDFCF7A0FC0290FCF73D
:1037F000A5FDD4F8BC40FCF7B1FD0298FCF79AFC9B
:10380000002CD9D11B480178012903D106706846E4
:10381000FEF756F9FCF7ECFD0199401A16490A68C3
:10382000824200D208606A4600214046FEF7CCFD85
:10383000FAE60000D44B0008CC000020E84B00085A
:10384000BC000020D80000205C000020C000002048
:10385000C8000020C4000020801A060000093D00B6
:10386000005A62020084D717BE000020A800002082
:103870006C000020BA000020D000002030B51D4AA6
:1038800089B0002111601C4A11601C4A11601C4A59
:1038900011701C4A11701C4A136843B11B4B1C4D1C
:1038A0001C682D68AC4205D246F62C6108E046F64D
:1038B0002B6105E0174C25781F2D04D346F62A61AD
:1038C000018009B030BD032505910691CDE907506F
:1038D00011481B6812680068CDE90120CDE9033169
:1038E0002078009000230D4A0DA11248FEF7C6F97A
:1038F000E7E70000C0000020C8000020C40000204E
:10390000CC000020BA000020D84B0008E04B000893
:10391000E44B0008D04B0008DC4B0008D935000808
:1039200075432F4F532D49494920537461742054D6
:1039300061736B00E433002010B5044631B10A46D0
:103940000146064800F010FB032000E0022084F846
:1039500036002046BDE81040FFF714BDF0000020FF
:10396000074B0022C0F8B820196829B1C0F8BC1074
:10397000C1F8B80018607047C0F8BC20FAE7000032
:10398000D8000020D0E92E2100234AB181B1C2F82D
:10399000BC10C1F8B820C0F8BC30C0F8B8307047CF
:1039A000054A116009B1C1F8B830C0F8BC307047A1
:1039B000C2F8BC30F1E70000D8000020044A002122
:1039C0001160044A1180044A1160018070470000B0
:1039D000D8000020DC000020D400002070B50025B5
:1039E000056085604560C560056145610446856187
:1039F00027A0C4E907506562A562E5622563E587F3
:103A00002564A565A4F85C50002104F16000FFF76F
:103A1000B7F925676567E567A4F884500020C4F806
:103A2000805000BF04EB8001401C8D6710F0FF0048
:103A3000F8D06564C4F8A050C4F8A450A56384F815
:103A40008650C4F8AC50C4F8A850A587A564E564B6
:103A500025656565A4F88850A4F88A50C4F88C5090
:103A6000C4F890503434FCF7C3FCC4E91805E5678A
:103A7000C4F8805004F8015B202004F8015B04F8CE
:103A8000015B04F8810B04A020C4C4E9005070BDA0
:103A90003F5461736B000000200000002DE9FC5FC3
:103AA0000546DDE90C760020994692468B4630802B
:103AB000FCF73CFB8046FCF741FC464C2078401C60
:103AC000C0B22070012801D1FFF7A8FCFCF746FC2A
:103AD0004046FCF72FFB0DB93F480568DFF8FC8036
:103AE00095F83600082852D2DFE800F004042626B4
:103AF00004042626CDE900764B465246594605F188
:103B00006000FFF745F9FCF711FB0546FCF716FCD2
:103B10002078401E10F0FF01217031D1FFF78CFC9E
:103B2000B8F8000060B3FCF719FC2846FCF702FB6C
:103B3000BDE8FC5FFFF750BC95F834000228D9D1EE
:103B400053465A46294600200097FFF76EFAFCF7C5
:103B5000EDFA0546FCF7F2FB2078401E10F0FF015D
:103B6000217001D1FFF768FCFCF7F8FB2846FCF751
:103B7000E1FA5FEA09402AD4BDE8FC5FFDF7A6BE82
:103B8000FCF7ECFB2846BDE8FC5FFCF7D3BAFCF77A
:103B9000CDFA0546FCF7D2FB2078401E10F0FF005E
:103BA00020700CD1FFF748FCB8F8000038B1FCF7E2
:103BB000D5FB2846FCF7BEFAFFF70EFC04E0FCF745
:103BC000CDFB2846FCF7B6FA46F62D603080BDE8FE
:103BD000FC9F0000A8000020140100206C000020C1
:103BE0002DE9F0410D460446FCF7A0FA0746FCF724
:103BF000A5FB00262E8094F83600082864D2DFE862
:103C000000F0040404040D394955FCF7A7FB3846BD
:103C1000FCF790FA47F25310288037E02F4D2878B0
:103C2000401CC0B22870012801D1FFF7F7FBFCF758
:103C300095FB3846FCF77EFA94F88600401E10F09B
:103C4000FF0084F8860004D184F836602046FFF730
:103C500031FBFCF76BFA0446FCF770FB2878401E3A
:103C600010F0FF01297001D1FFF7E6FBFCF776FBAE
:103C7000204609E094F88600401E10F0FF0084F80A
:103C800086001BD101200EE0FCF754FABDE8F0419C
:103C9000FDF71CBE94F88600401E10F0FF0084F86B
:103CA00086000BD1022084F8360007E094F88600E5
:103CB000401E10F0FF0084F8860003D0FCF74EFB96
:103CC0003846E1E70320EEE7FCF748FB3846FCF70F
:103CD00031FA46F62D602880BDE8F081A80000206A
:103CE000044808B50068FEF7C1F969460020FEF7F0
:103CF000C9F808BD140100202DE9F84F98469146F7
:103D00008B460646FCF712FA0546FCF717FB594CA2
:103D10002078401CC0B22070012801D1FFF77EFB43
:103D2000FCF71CFB2846FCF705FA0EB9524806685A
:103D30000020524FC6F84090A8F8000096F83600D0
:103D400046F6C55A082872D2DFE800F033332F2F29
:103D500033332F2FFCF702FB2846FCF7EBF9FFF774
:103D60003BFB04E0FCF7FAFA2846FCF7E3F9A8F875
:103D700000A00020BDE8F88F6D1C7564FCF7D6F933
:103D80000646FCF7DBFA2078401E10F0FF0020709A
:103D900047D1FFF751FB3888F0B3FCF7DFFA304624
:103DA000FCF7C8F9FFF718FB62E096F83400072823
:103DB00013D0756C681CDFD1FCF7B8F90546FCF729
:103DC000BDFA2078401E10F0FF002070CAD1FFF726
:103DD00033FB38880028C5D0BCE700231A4631469B
:103DE0001846CDF80090FFF720F9756CFCF79EF9A6
:103DF0000646FCF7A3FA2078401E10F0FF00207062
:103E000001D1FFF719FBFCF7A9FA3046FCF792F94C
:103E10005FEA0B402CD401E003E008E0FDF756FD1B
:103E200026E0FCF79BFA3046FCF784F920E0FCF72B
:103E30007DF90546FCF782FA2078401E10F0FF005D
:103E400020700BD1FFF7F8FA388838B1FCF786FA02
:103E50002846FCF76FF9FFF7BFFA04E0FCF77EFA9B
:103E60002846FCF767F946F62D60A8F80000002503
:103E700028467FE7A8000020140100206C000020E5
:103E80002DE9F0410D460446FCF750F90746FCF7D2
:103E900055FA334804B90468016832488C4209D1A4
:103EA000017839B1FCF75AFA3846FCF743F946F67F
:103EB000635052E00021298094F836100126082929
:103EC00044D2DFE801F0043133393B3B3B3B05464C
:103ED0000078401CC0B22870012801D1FFF79EFA7B
:103EE000FCF73CFA3846FCF725F9042084F8360044
:103EF00084F886602046FFF745FAFCF717F9044678
:103F0000FCF71CFA2878401E10F0FF01297001D13F
:103F1000FFF792FAFCF722FA4FEA0400FCF70AF9DD
:103F2000BDE8F041FDF7D2BC052000E0062084F892
:103F3000360084F8866005E00720F8E714F8860F5D
:103F4000401C2070FCF70AFA3846E7E7FCF706FA4F
:103F50003846FCF7EFF846F62D602880BDE8F08182
:103F600014010020A800002030B50368002433B9F4
:103F70004C618A64C1E90640016001210FE09D6C3B
:103F8000954216D39D694B618A6455B1C1E90650CB
:103F90009C6CA21A9A64996169618188491C81802C
:103FA00030BDC1E906409C6CA21A9A649961016017
:103FB000F3E7521B1D465B69002BE0D14C618A641C
:103FC000C1E90650E8E70000F0B51C461B4BDFF8DE
:103FD00068C000251B6847F27E26042A04D0082A00
:103FE00008D029B10A4614E0CA1A624500D882B93D
:103FF00085641EE0D0F84CE0A3EB0E078F4202D997
:104000000A46991804E0CA1B62450BD852B17144A4
:10401000C164012180F8361001460948FFF7A4FF6A
:104020002580F0BDB7FBF1F201FB02E21144C0E9CB
:1040300012512680F0BD00000000FFFFE0000020CC
:10404000E800002030B5D0E90524C369002174B12F
:10405000626122B19461946C856C2C44946481619A
:104060009A88521E9A8041618164C16130BD32B12B
:104070009161946C856C2C4494641A60F0E719602B
:104080009980F1E7704700002DE9F047FCF74EF802
:104090000446FCF753F9DFF8C88098F80000401C8C
:1040A000C2B288F80020012A01D1FFF7B7F9FCF766
:1040B00055F92046FCF73EF8FCF79AF9294D0746DA
:1040C00000262C6814B3A06CB146401E4FF0040AC1
:1040D000A06418E0761C94F83600B6B2012802D02D
:1040E000052806D007E084F836902046FFF7E2F86E
:1040F00001E084F836A064692C60CCB1A888401E29
:10410000A880C4F81890A06C0028E3D0EE80FCF7DB
:104110006FF9C41BFCF70AF80546FCF70FF998F88D
:104120000000401E10F0FF0088F8000003D00FE0F0
:10413000A5F80490EAE7FFF77FF90B48008838B14B
:10414000FCF70CF92846FBF7F5FFFFF745F904E00B
:10415000FCF704F92846FBF7EDFF2046BDE8F087A1
:10416000A8000020E80000206C0000202DE9F047A6
:10417000FBF7DCFF0446FCF7E1F8DFF8FC9099F868
:104180000000401CC2B289F80020012A01D1FFF7CB
:1041900045F9FCF7E3F82046FBF7CCFFFCF728F9DC
:1041A000364D074600262C68DCB3A06C4FF0030A9E
:1041B000401EB046A06431E0761C94F83600B6B2DA
:1041C000032802D0072810D020E0C4F85880A4F8B3
:1041D0005C80FCF70DF920642046FEF7F8FE2046CF
:1041E000FFF768F884F836800CE0C4F85880A4F82B
:1041F0005C80FCF7FDF820642046FEF7E8FE042012
:1042000084F8360084F835A084F8348064692C6022
:10421000CCB1A888401EA880C4F81880A06C0028E3
:10422000CAD0EE80FCF7E4F8C41BFBF77FFF05461D
:10423000FCF784F899F80000401E10F0FF0089F8A0
:10424000000003D00FE0A5F80480EAE7FFF7F4F8D8
:104250000B48008838B1FCF781F82846FBF76AFF65
:10426000FFF7BAF804E0FCF779F82846FBF762FF9D
:104270002046BDE8F0870000A8000020F0000020E4
:104280006C0000201CB5274C274D00216B4601AA6D
:104290000846FDF7F3FEBDF800000028F5D12348DD
:1042A00000780128F1D1FBF741FF0646FCF746F8FC
:1042B0002078401CC0B22070012801D1FFF7AEF871
:1042C000FCF74CF83046FBF735FF19480168491CEC
:1042D0000160FBF72BFF0646FCF730F82078401E04
:1042E00010F0FF0020700CD1FFF7A6F811480088ED
:1042F00038B1FCF733F83046FBF71CFFFFF76CF8DA
:1043000004E0FCF72BF83046FBF714FFFFF7BCFE88
:104310000646FFF72BFF296830448142B5D228605A
:10432000B3E70000A8000020E400002060000020A7
:10433000E00000206C00002030B51D4A89B000214B
:1043400011601C4A1C4B116019609180D1801B4A7E
:104350009980D980136843B1194B1A4D1C682D6898
:10436000AC4205D247F2132108E047F2122105E0E2
:10437000154C25781F2D04D347F21121018009B077
:1043800030BD0B2505910691CDE9075018680F4BFC
:1043900012681B68CDE90301CDE901232078009064
:1043A00000230B4A0BA11048FDF768FCE7E700006B
:1043B000E0000020E8000020F0000020F04B0008A2
:1043C000F84B0008E44B0008EC4B0008F44B0008E5
:1043D0008542000875432F4F532D494949205469A0
:1043E000636B205461736B00A834002030B5054620
:1043F000294889B00024046028482A492A4A0460D0
:104400002748048029480B681BB11268B2FBF3F1FE
:1044100003E011680A22B1FBF2F101600846244969
:104420002A460860234825A10460234804602748E1
:10443000FCF7E6FF2888002815D12548016841B11E
:104440002449254B0A681B689A4205D247F2483036
:1044500008E047F2473005E0204A13781F2B04D3C9
:1044600047F24630288009B030BD0B23CDE9064322
:104470001B4B089505941B6809680068CDE901038A
:10448000CDE90314107800900023164A16A11C48A9
:10449000FDF7F4FBE7E70000F80000200001002032
:1044A000FC000020004C0008E84B00080C01002034
:1044B0001001002008010020040100204F53205467
:1044C0006D72204D75746578000000006C35002019
:1044D000044C00080C4C0008E44B0008FC4B00089E
:1044E000084C00082145000875432F4F532D4949BA
:1044F000492054696D6572205461736B000000009F
:10450000983500200EB501A80022009002AB11469C
:104510000148FCF7CDFF0EBD6C3500207047000050
:104520001CB5DFF88880DFF88890DFF888A00021CC
:104530006B4601AA0846FDF7A1FDFFF7E3FFFBF775
:1045400057FFD8F800100646491CC8F8001003278A
:10455000D9F8004018E06846FDF7F2F9A06925692E
:10456000401EA0610CD1A08C02281BD0204600F078
:1045700023F884F82670A26812B12046E1689047BB
:104580002C466846FDF736FA002CE4D1FBF730FFE5
:10459000841B00F02FF8DAF80010A142C7D2CAF845
:1045A0000040C4E7206AA061E5E7000008010020A0
:1045B00000010020040100200C4B10B51C680022F3
:1045C0000169844203D1196029B14A6103E043695A
:1045D000196101B14B61012180F826100449026183
:1045E00042610888401E088010BD000000010020C4
:1045F000FC00002008B56A4600210248FDF770F86B
:1046000008BD00006C350020704730B58FB0282100
:104610006846FBF7A8FD14210AA8FBF7A4FD0121B9
:104620000804CDE900100024029402250491CDE98C
:1046300007504FF4E01009906846FCF7BFF90F20CF
:10464000CDE90A056802CDE90C4002210AA80E94C2
:10465000FCF7D2F80FB030BD704710B5406A0021AA
:10466000C185C184FCF74FFB10BD01680C3151E8D6
:10467000002F22F4907241E80023002BF5D101684D
:10468000143151E8002F22F0010241E80023002BF1
:10469000F5D1016B012909D101680C3151E8002FD6
:1046A00022F0100241E80023002BF5D1202180F8F0
:1046B000421000210163704708B590F8421022298A
:1046C00001D0022008BD82684FF480539A4201D184
:1046D000016921B1816A9A421BD04AB10AE002689D
:1046E000816A5268C2F308020A80816A891C08E064
:1046F000026972B10268526802F07F020A70816A30
:10470000491C8162C18D491E0904090CC18503D071
:104710001BE002685268F1E70168CA6822F02002D3
:10472000CA600168CA6822F48072CA6001684A6976
:1047300022F001024A61202180F8421000214163E9
:10474000026B012A03D0FCF787FC002008BD01633F
:1047500001680C3151E8002F22F0100241E80023DB
:10476000002BF5D101680A68D20602D50A684968AB
:104770000091818DFCF7C6FAE7E7000070B50446AA
:1047800000680169E26821F4405111430161216927
:10479000A0680843616908432168CA6841F20C6354
:1047A0009A430243CA6020684169A26921F44071BA
:1047B000114341611E492068884202D1FCF7C8F8C4
:1047C00001E0FCF7B5F800EBC00101EB00126068F6
:1047D00064218000B2FBF0F3B3FBF1F36FF0180635
:1047E0007343B2FBF0F5B2FBF0F605EB8305322321
:1047F00003EB0515B5FBF1F5B6FBF1F605F0F00599
:1048000005EB0615B2FBF0F6B2FBF0F0B0FBF1F0F1
:104810006FF01802504306EB800003EB0010B0FB72
:10482000F1F0216800F00F002844886070BD00009E
:10483000003801400148FCF767BA0000B0080020CA
:10484000FEE70000014A024900F023B8B54800081D
:104850001C0100200907090E002804DB00F1E020FC
:1048600080F80014704700F00F0000F1E02080F89D
:10487000141D704702E008C8121F08C1002AFAD1AF
:1048800070477047002001E001C1121F002AFBD1D0
:1048900070472DE9F04116460F460446002503E017
:1048A0003946B047641C6D1C20780028F8D1284692
:1048B000BDE8F08138B504468DF800006946032054
:1048C000ABBE204638BD00000EB5FBF7B5FCFBF7CC
:1048D000CBFCFCF72DFC02A8FDF76EF9FBF710FDF1
:1048E0000E4E002502AC002208213046FBF7E8FE00
:1048F0000023CDE90054032219461846FDF7D6FDE2
:10490000012208213046FBF7DBFE0023CDE90054ED
:10491000032219461846FDF7C9FDE4E700080140E7
:104920000EB5FBF789FCFBF79FFCFCF701FC02A826
:10493000FDF742F9FBF7E4FC0F4F002502AC4FF402
:104940000056002231463846FBF7BAFE0023CDE977
:104950000054012219461846FDF7A8FD01223146F0
:104960003846FBF7ADFE0023CDE90054012219467D
:104970001846FDF79BFDE4E70010014010B58AB032
:1049800009A8FCF727FCFBF7A7FEFFF73EFEFCF7A4
:10499000ADFB002006AB09AA0321059083E80700C0
:1049A00060220923094CCDE90232CDE900140490BC
:1049B0000346074A07A104F59060FDF75FF909A8CF
:1049C000FDF752F80AB0002010BD000020010020C1
:1049D000254A00087374617274207461736B00005F
:1049E0000EB5FBF729FCFBF73FFCFCF7A1FB02A887
:1049F000FDF7E2F8FBF784FC002402AD05A0FFF709
:104A000021FF0023022219461846CDE90045FDF793
:104A10004DFDF3E768656C6C6F2075632F4F532075
:104A20000D0A00002DE9F0438BB0FBF705FC09A847
:104A3000FDF7C2F8FBF764FC012109AA0846FCF760
:104A4000ADFFFBF773FB0446FBF778FCDFF8E09063
:104A500099F80000401CC2B289F80020012A01D157
:104A6000FEF7DCFCFBF77AFC2046FBF763FB002437
:104A70004FF00308CDE9064809AE2E4801A94027AA
:104A8000062508960594049481E8A100042000906E
:104A90002346294A29A12C48FDF7F0F8CDE906481C
:104AA0002A4801A908960594049481E8A1000023EE
:104AB000274A28A100F553700095FDF7DFF8CDE9EE
:104AC0000648264801A908960594049481E8A100A7
:104AD000052000901C480023214A22A1C430FDF784
:104AE000CDF8194809A9C438FFF7CAF9FBF71EFB2E
:104AF0000446FBF723FC99F80000401E10F0FF026B
:104B000089F800200ED1FEF797FC1948008848B1BB
:104B1000FBF724FC2046FBF70DFBFEF75DFC0BB01A
:104B2000BDE8F083FBF71AFC2046FBF703FBF6E732
:104B3000A8000020A0020020214900086C65645FE5
:104B4000706331330000000064060020A0040020E0
:104B5000C94800086C65645F70613300A0030020E1
:104B6000E149000873656E645F6D736700000000C3
:104B70006C000020010202030405060708090A0B65
:104B80000C0D0E0F101000000000000000000102CC
:104B900003040607080900000000010203040000E6
:104BA000501D00200C00000080000000501F00205D
:104BB0000A000000902000200C000000800000008F
:104BC000902200208000000064000000902400205B
:104BD0000B0000000A000000D02A00200C0000009A
:104BE0008000000040000000E80300000A00000010
:104BF000D02C00200C000000800000000B00000002
:104C00000A000000D02E00200C00000080000000F0
:104C1000304C00080000002020010000744800080B
:104C2000504D000820010020403900008448000851
:104C300001000000100000000000000000127A00D7
:104C40000000000000000000000000000000000064
:104C50000000000000000000000000000000000054
:104C60000000000000000000000000000000000044
:104C70000000000000000000000000000000000034
:104C80000000000000000000000000000000000024
:104C90000000000000000000000000000000000014
:104CA0000000000000000000000000000000000004
:104CB00000000000000000000000000000000000F4
:104CC00000000000000000000000000000000000E4
:104CD00000000000000000000000000000000000D4
:104CE00000000000000000000000000000000000C4
:104CF00000000000000000000000000000000000B4
:104D000000000000000000000000000000000000A3
:104D10000000000000000000000000000000000093
:104D20000000000000000000000000000000000083
:104D30000000000000000000000000000000000073
:104D40000000000000000000000000000000000063
:04000005080000ED02
:00000001FF
